:020000040800F2
:10000000F8150020A10100086B3A0008E927000854
:10001000693A000851070008213F0008000000006D
:100020000000000000000000000000006F3A00081F
:1000300005080008000000006D3A0008713A000849
:10004000BB010008BB010008BB010008BB010008A0
:10005000BB010008BB010008BB010008BB01000890
:10006000BB010008BB010008BB01000855070008E0
:10007000BB010008BB010008BB010008BB01000870
:10008000BB010008BB010008BB010008BB01000860
:10009000BB010008BB010008BB010008BB01000850
:1000A000BB010008BB010008BB010008BB01000840
:1000B000BB010008193B0008BB010008F927000834
:1000C000ED270008BB010008BB010008BB010008C8
:1000D000BB010008093F0008153F0008BB010008EC
:1000E000BB010008BB010008BB010008BB01000800
:1000F000BB010008BB010008BB010008BB010008F0
:10010000BB010008BB010008BB010008BB010008DF
:10011000BB010008BB010008BB010008253B00082B
:10012000BB010008BB010008BB010008BB010008BF
:10013000BB010008BB010008BB010008BB010008AF
:10014000BB010008BB010008BB010008BB0100089F
:10015000BB010008BB010008BB010008BB0100088F
:10016000BB010008BB010008BB010008BB0100087F
:10017000BB010008BB010008BB0100080000000033
:10018000BB010008BB010008DFF810D000F0CEFA78
:10019000004800476D480008AFF30080F8150020C4
:1001A0000648804706480047FEE7FEE7FEE7FEE711
:1001B000FEE7FEE7FEE7FEE7FEE7FEE7093B000895
:1001C000890100082DE9F05F0546002092469B4614
:1001D00088460646814640241BE02846414647465D
:1001E000224600F01DFA53465A46C01A914110D3D8
:1001F00011461846224600F016F82D1A67EB010842
:100200004F4622460120002100F00DF817EB0009AF
:100210004E41201EA4F10104DFDC484631462A4647
:100220004346BDE8F09F202A04DB203A00FA02F1A1
:10023000002070479140C2F1200320FA03F31943D4
:1002400090407047202A06DBCB17203A41FA02F093
:1002500043EAE07306E041FA02F3D040C2F1200223
:100260009140084319467047D2B201E000F8012BD3
:10027000491EFBD270470022F6E710B513460A4626
:1002800004461946FFF7F0FF204610BD2DE9FE4F4A
:10029000804681EA0300C00F0C46009021F0004127
:1002A00023F00045B8EB0200A94105D240462146A3
:1002B00090461C460B46024623F00040104347D0B0
:1002C000270DC7F30A00C3F30A510290401A0190A8
:1002D00040286BDAC3F3130040F4801B0098924669
:1002E00020B10023D2EB030A63EB0B0B01985946B4
:1002F000C0F140025046FFF796FF06460D465046B5
:100300005946019AFFF79EFF10EB08006141002457
:1003100087EA115284EAE7731A4340D0009A62B325
:10032000019A012A4FEA075215DC001B61EB02011A
:100330004FF0004202EA0752CDE90042001C41F5AD
:10034000801132462B4600F08AF903B0BDE8F08FE9
:1003500040462146F9E7001B61EB0201001C41F514
:10036000801300185B412018A2F5001747EB03012A
:1003700040EAD570B6196D4111E06D084FEA3606B6
:1003800045EAC0754FEA0752001B61EB0201001CF1
:1003900041F5801149084FEA3000001951413246B9
:1003A0002B4603B0BDE8F04F00F04AB90098012297
:1003B00040000023D0EB020263EBE073009821467B
:1003C0004FEAE074B8EB000061EB0401E9E783F069
:1003D00000435BE781F0004158E72DE9FE4F81EAD9
:1003E000030404F0004421F0004100944FF0000B9E
:1003F00023F0004350EA01045ED052EA03045BD0CC
:10040000C3F30A54C1F30A552C44A4F2F334019403
:10041000A0FB0254C1F3130141F48011C3F3130391
:1004200043F4801301FB024400FB034E840A970A45
:1004300044EA815447EA8357A4FB076802958D0A72
:1004400005FB07854FEA932C04FB0C542705029DFE
:100450004FEA065847EA1637B5EB08056EEB070C6E
:10046000870E920E47EA811742EA8312A7FB020128
:10047000B6EB0B0164EB00042B0D43EA0C335E1862
:1004800044EB1C50DA465146E7FB0201C5F3130466
:100490004FEA0B3343EA14534FEA0432019C43EA18
:1004A0000603A4F10C040294009CCDE900B400F012
:1004B000D6F803B0BDE8F08F00200146F9E72DE93A
:1004C000F04D81EA030404F0004B21F0004514468E
:1004D0004FF0000A23F0004150EA050220D054EA10
:1004E00001021DD0C5F30A570246C5F31303C1F339
:1004F0001300C1F30A5640F4801543F48013A7EBB0
:100500000608101BD64608F2FD3873EB050002D32F
:1005100008F1010801E092185B41B8F1000F03DA1D
:1005200000200146BDE8F08D00204FF48011064602
:1005300084460EE0171B73EB050705D3121B63EB14
:10054000050306434CEA010C49084FEA30009218B3
:100550005B4150EA0107EDD152EA030012D082EA72
:10056000040083EA0501084305D0101BAB4106D205
:100570000122002306E000224FF0004302E06FF06A
:10058000010253101AEB06004CEB085110EB0A0065
:1005900041EB0B01BDE8F04D00F052B800F0004215
:1005A00030F000400AD0C10D01F56071C0F31600B3
:1005B00042EA0151C208400711437047002001463A
:1005C0007047000030B5041E71F1000404DB4FF0E9
:1005D0000044404264EB0101141E73F1000405DB8A
:1005E0001C464FF00043524263EB0403994208BF9C
:1005F000904230BD30B50B46014600202022012438
:1006000009E021FA02F59D4205D303FA02F5491BE0
:1006100004FA02F52844151EA2F10102F1DC30BDF6
:10062000202A04DB203A21FA02F00021704721FA47
:1006300002F3D040C2F120029140084319467047AE
:1006400010B5141E73F1000408DA401C41F10001DA
:1006500092185B411A4301D120F0010010BD2DE931
:10066000F04D92469B4611B1B1FA81F202E0B0FA28
:1006700080F220329046FFF7D6FD04460F4640EA4E
:100680000A0041EA0B0153465A46084313D011466B
:1006900053EA010019D0C8F140025046FFF7C0FFED
:1006A00005460E46504659464246FFF7BCFD0843F4
:1006B00005D0012004E020463946BDE8F08D002039
:1006C000054346EAE0762C4337430A986305E40A7B
:1006D000A0EB08000022FD0A44EA47540A3002D584
:1006E00000200146E9E7010510196941DDE90845E7
:1006F00000196941BDE8F04DA2E7C1F30A52C1F308
:10070000130140F2FF3341F480119A4202DA0020D3
:100710000146704740F233439A42A2F2334202DC70
:100720005242FFF77DBFFFF77EBD0000064C074D2C
:1007300006E0E06840F0010394E8070098471034B1
:10074000AC42F6D3FFF724FD304B0008504B0008B5
:10075000FEE70000014800F0B9B800007810002062
:1007600001681823CAB2103AB2FBF3F2054B6FF3DB
:100770000901032A9B5CC36500D9091D81650846F0
:1007800070470000104B000810B5014600208B692F
:100790008A6A4FF0C07453B1B3F5005F15D072B1DF
:1007A000012A0CD0022A0AD0032A09D104E01AB186
:1007B000012A06D0022A03D1C96AC90100D5012045
:1007C00010BDC96AA142FAD010BD002AF7D0012A93
:1007D000F2D0022AF3D0032AF3D010BD30B504685A
:1007E000256825F480252560046863608368402BB4
:1007F000036803D099600068C26030BD9A600068E9
:10080000C16030BD704772B6FEE72DE9F041044685
:10081000876D00F0E5FA064694F8350000250228B9
:1008200006D08020606584F834500120BDE8F08156
:100830002068016821F0160101602068416921F0FB
:1008400080014161206C08B9A06C20B1206801686A
:1008500021F0080101602068016821F001010160B8
:100860000CE000F0BDFA801B052807D92020606548
:10087000032084F8350084F83450D7E720680068F6
:10088000C007EED194F85C103F208840B86001208A
:1008900084F8350084F834500020C7E790F835100C
:1008A000022903D08021416501207047052180F88D
:1008B00035100068016821F00101016000207047D7
:1008C000406D704790F83500704700002DE9F843FF
:1008D00004464FF00009CDF8009063484FF41651DC
:1008E000A56D0068B0FBF1F72E6894F85C10082045
:1008F00000FA01F131420FD021680A6852070BD586
:100900000A6822F004020A6094F85C108840A8602B
:10091000606D40F00100606594F85C104FF00108D4
:1009200008FA01F0304208D021684969090604D567
:10093000A860606D40F00200606594F85C100420CF
:100940008840304208D021680968890704D5A8602A
:10095000606D40F00400606594F85C1010208840E1
:10096000304218D021680968090714D5A8602068AA
:100970000168490304D50068000308D5A16C07E0AD
:100980000168C90503D4016821F008010160216CE8
:1009900009B12046884794F85C10202088403042F6
:1009A00031D021680968C9062DD5A86094F83500B2
:1009B00005282068016806D0490347D50068000370
:1009C0001DD4616C1CE021F01601016020684169B2
:1009D00021F080014161206C08B9A06C20B1206831
:1009E000016821F00801016094F85C103F20884004
:1009F000A86084F8358084F83490216D1FE0E16BA5
:100A000009B120468847606D00282BD0606DC00773
:100A100014D0052084F835002068016821F0010118
:100A200001600098401C0090B84203D8206800681C
:100A3000C007F6D184F8358084F83490E16C002941
:100A400010D001B02046BDE8F04308470168C90551
:100A5000D5D4016821F01001016084F8358084F854
:100A60003490CCE7BDE8F883180000202DE9F04170
:100A7000044600F0B5F906465CB1022084F8350062
:100A8000002584F834502068016821F001010160DC
:100A90000DE00120BDE8F08100F0A2F9801B0528DF
:100AA00005D920206065032084F83500F2E720682E
:100AB0000068C007F0D12268116820480140D4E9DD
:100AC00001031843D4E903363343184363691843D9
:100AD000A3691843E3691843236A18430843616A0A
:100AE000042903D1D4E90B1319430843106020688B
:100AF0004069666A20F0070130460E43012704284A
:100B00000CD1A06A0643E06A40B12046FFF73CFEE4
:100B100020B14020606584F83570BAE720684661EE
:100B20002046FFF71DFE94F85C203F219140816034
:100B3000656584F835700020ACE700003F8010F058
:100B40002DE9F0410446866D90F834000025012817
:100B50000DD0012084F8340094F835700020012F66
:100B600007D084F8340002252846BDE8F081022031
:100B7000FBE7022784F8357060652046FFF72EFEFC
:100B800094F85C103F208840B0602068016841F014
:100B900016010160206C20B12068016841F0080155
:100BA00001602068016841F001010160DCE700009C
:100BB00070B5044600F014F90546601C02D00448E4
:100BC0000078044400F00CF9401BA042FAD370BD39
:100BD0000C0000202DE9F84FDFF8BCA10022012510
:100BE00003264FF00F090AF1040BAAF1040E00BF0F
:100BF0000B6805FA02F42340A34270D10F7907F085
:100C00000307012F01D0022F16D187684FEA42084F
:100C100006FA08FC27EA0C07D1F80CC00CFA08FC0D
:100C20004CEA070CC0F808C04768A7430C79C4F326
:100C3000001494403C4344600C79E443A4070AD078
:100C4000C4684FEA420C06FA0CF7BC438F6807FAF7
:100C50000CF72743C7600C7904F00304022C12D16F
:100C6000D40800EB840CDCF820405707FF0E09FA8B
:100C700007F824EA0804D1F8108008FA07F848EACF
:100C80000408CCF8208004684FEA420C06FA0CF7FE
:100C9000BC430F7907F0030707FA0CF727430760F7
:100CA0004C6814F4403F70D03C4C276847F48047B0
:100CB0002760246822F0030704F480440094384C31
:100CC00007EB040CDCF8084897074FEA177809FA95
:100CD00008F7BC43334FB84202D1002724E054E068
:100CE000314FB84201D101271EE0304FB84201D147
:100CF000022719E02E4FB84201D1032714E02D4FEF
:100D0000B84201D104270FE02B4FB84201D105278B
:100D10000AE02A4FB84201D1062705E0284FB84221
:100D200001D1072700E0082707FA08F72743CCF886
:100D30000878DAF800405746D1F804C09C435FEACF
:100D4000CC2C00D51C433C60DBF800405F46D1F85A
:100D500004C09C435FEA8C2C00D51C433C60DEF849
:100D600000407746D1F804C09C435FEA8C3C00D534
:100D70001C433C60084F083F3C68D1F804C09C43CA
:100D80005FEACC3C00D51C433C60521C102AFFF4A7
:100D90002FAFBDE8F88F0000083C01404438024006
:100DA0000030014000000240000402400008024000
:100DB000000C0240001002400014024000180240E3
:100DC000001C0240426921EA02030A4043EA024150
:100DD000816170470AB1816170470904FBE7000037
:100DE00001488068704700000C0000207047704781
:100DF0002DE9F041016804464A694E6890F83E00CA
:100E00000025D743FA0506D4F243D20503D46FF484
:100E1000807201254A61B90508D4F143C90505D49A
:100E200022686FF4007145F002055161790525D4FF
:100E3000F143C90522D4638D94F83D10226B20281C
:100E400008D13BB9212910D029290ED0282901D158
:100E5000212A0AD022686FF48061516145F00405AF
:100E6000102806D0402804D008E0204602F03EFAC0
:100E700004E02068016841F400710160380508D47D
:100E8000F043C00505D421686FF4006045F0080503
:100E90004861002D07D0206C284320642046BDE81F
:100EA000F04101F0BFBDBDE8F0812DE9F0470268D7
:100EB00000215368C66A90F83E4090F83D50102CCF
:100EC00012D0402C10D0046C002C7DD05469E44327
:100ED000A6077AD4DE43B60577D4036C03B19169D3
:100EE000BDE8F04702F0DEB9976951694FF42A0C6A
:100EF000C9435FEAC1784FF02A4904D066452AD039
:100F00004E4528D010E0DE43B6050DD4C16A6145D8
:100F100001D1012103E0C16A494501D10821C16223
:100F2000BDE8F04702F052B80E0716D4DE43B6050E
:100F300013D4416CC9B21161416B09B1C96B29B9B4
:100F4000816B002907D0C96B002904D00068416873
:100F500041F400614160BDE8F0878E0706D4DE43AE
:100F6000B60503D4BDE8F04701F0A4BFFE435268C4
:100F700076074FEA02521DD4002AECDB0A0608D499
:100F8000DA43520505D4490705D5BDE8F04701F01D
:100F900035BF4907DFD4D9438905DCD4212D05D0DD
:100FA000402CD8D1BDE8F04702F056B8BDE8F04774
:100FB00001F0E2BE002ACEDB4A060BD4DA4352052A
:100FC00008D4490708D501E00DE00EE0BDE8F04780
:100FD00001F058BE4907BED4D9438905BBD4BDE84A
:100FE000F04701F0E2BD916970E7E10606D4D9430C
:100FF000890503D4BDE8F04702F0C0B92821212DAE
:1010000027D0292D25D0650655D4DD436D0552D452
:10101000640752D590F83D30448D002C9BD0126966
:10102000446A2270426A521C4262428D521E4285BC
:10103000428D002A8FD12A2B8DD10268536823F468
:10104000806353602222026380F83D1000F02CFC84
:1010500081E7250623D4DD436D0520D4640720D520
:1010600090F83D30448D002CF2D0446A247814610D
:10107000426A521C4262428D521E4285428D002AB3
:10108000E6D1292BE4D10268536823F480635360CE
:101090002122026380F83D1000F007FC5BE7610746
:1010A000D6D4D9438905D3D4418D0029D0D0416A03
:1010B000097811610AE06107CAD4D9438905C7D408
:1010C000418D0029C4D01169426A1170416A491CDE
:1010D0004162418D491E41853DE70000016C01A040
:1010E00002F020BF493243204572726F723A2025C8
:1010F0006C750A0090F83D007047000070B5040060
:1011000025D094F83D00002520B984F83C502046B5
:1011100000F06AFB242084F83D002068016821F07B
:10112000010101602068016841F40041016020680C
:10113000016821F40041016000F038FD4D4A61680A
:10114000914201D84C4900E04C49884201D201202B
:1011500070BD4B492368B0FBF1F15E6826F03F0695
:101160000E435E606368934206D94FF49673594309
:101170004FF47A73B1FBF3F12368491C1E6A26F021
:101180003F06314319626168914210D84900401E00
:10119000B0FBF1F2521CC2F30B02042A01D204206C
:1011A00022E0B0FBF1F0401CC0F30B001CE0A26891
:1011B000F2B301EBC10303EB0116431EB3FBF6F3DD
:1011C0005B1C43F480431B0549D092B301EBC10281
:1011D00002EB0111401EB0FBF1F0401CC0F30B000C
:1011E00040F4804040F400402168CA694CF6FF7327
:1011F0009A431043C861D4E907100143206802688C
:1012000022F0C00211430160D4E9030101432068C8
:10121000826848F2FF339A4311438160D4E90501A3
:1012200008432168CA6822F0FF021043C86001E049
:101230000EE016E02068016841F0010101602564BC
:10124000202084F83D00256384F83E50002070BDC6
:1012500001EB4106431EB3FBF6F35B1CB3E7012031
:10126000C2E701EB4101401EB0FBF1F0401CC0F3AE
:101270000B00B7E7A086010080841E0000093D0036
:1012800040420F0070477047704700001CB500686F
:101290000E49884219D140210D48FFF793FD0D49B1
:1012A00001200E4A08700C4901230878C0F10100A2
:1012B000C0B2087002EBC0204FF40061CDE900011C
:1012C0003B22D021064800F011F91CBD005400401B
:1012D0000000024001000020000000202400002047
:1012E00024100020704700002DE9FF4F83B09A467C
:1012F000DDE9118793460446DDF84090FFF770FD65
:10130000054694F83D00202870D119230122744924
:101310002046009502F00CF90028F5D194F83C0025
:10132000012863D0012084F83C0020680168C907C7
:1013300003D1016841F0010101602068016821F4D6
:1013400000610160222084F83D00402084F83E00C6
:1013500000262664C4F82490A4F82A80608D208595
:101360006048E062CDE9007553465A46204604992C
:1013700001F0C6FE002879D1208DD0B1012821D0FE
:101380000228206824D0416980690090208D0328BC
:1013900066D801282BD0544902283B464FF0000262
:1013A000009557D08846204602F0C2F800285DD14B
:1013B0003AE02068416981690091016841F4007157
:1013C00001607DE02068016821F480610160F0E740
:1013D000016821F4806101602068016841F40061C6
:1013E0000160206841698069009069E075E02A46E3
:1013F0003946204602F042F988BB54E02068016873
:1014000041F40071016020680069616A0870606AD7
:10141000401C6062218D491E2185618D491E6185B8
:1014200021680969017042E02068016821F4806147
:10143000016020680069616A0870606A401C60622F
:10144000208D401E2085608D401E60853B46002219
:1014500041460095204602F06BF800B9CEE705E062
:101460002A463946204602F009F918B1012007B092
:10147000BDE8F08F20680069616A0870606A401CEE
:101480006062208D401E81B22185608D401E608586
:1014900020684269D243520712D4032903D101685C
:1014A00021F48061016020680069616A0870606AE7
:1014B000401C6062208D401E2085608D401E60852E
:1014C000208D00287FF462AF202084F83D0084F84E
:1014D0003E6084F83C600020C9E70220C7E70000B6
:1014E000020010000000FFFF040001002DE9FC5F76
:1014F000994692468B460446DDF83080FFF770FC33
:1015000000250646009594F83D00202828D166481D
:1015100046F2A81120270068B0FBF1F000EBC001F3
:1015200001EB001000900098401E009010D0206841
:101530008069C0438007F6D594F83C0001280FD09D
:10154000012084F83C0020680168C9070BD00EE038
:1015500044F8305F6773A573206940F02000206174
:101560000220BDE8FC9F016841F001010160206894
:10157000016821F400610160222084F83D004020D0
:1015800084F83E002564C4F824800D986085608D41
:1015900020854648E062C4F844B0C4F848A0C4F8C6
:1015A0004C902565208D4FF02308002863D0A06B58
:1015B00000B33F49C163A16B3E48C864A06B05649A
:1015C000A06B4564A06B8564A06B05652168238DC5
:1015D0001031626AA06BFFF7B3FAA0B184F83D70D6
:1015E00084F83E5054F8400F40F0100044F80409CD
:1015F000257049E084F83D7084F83E5054F8400F5F
:1016000040F08000F2E7CDE900864B46524659464D
:10161000204601F075FD88B1A06BFFF73FF9A06B84
:10162000C5632068016821F48061016025856585B6
:101630002068016821F00101016025E0208D01286A
:10164000206813D0416841F48051416020684169AD
:101650008169009184F83C50416841F48071416097
:101660002068416841F4006141601BE0016821F499
:1016700080610160EAE7CDE900864B465246594653
:10168000204601F03DFD08B101206AE7206841696C
:1016900081690091016841F40071016084F83D7036
:1016A00084F83C5000205CE7180000200000FFFF99
:1016B00001290008C12800082DE9FF4F83B09A4690
:1016C000DDE9119793460446DDF84080FFF788FB7B
:1016D000054694F83D0020287FD119230122404976
:1016E0002046009501F024FF002876D194F83C00B4
:1016F000012872D0012084F83C0020680168C907E5
:1017000003D1016841F0010101602068016821F402
:1017100000610160212084F83D00402084F83E00F3
:1017200000262664C4F82480A4F82A90608D2085C1
:101730002C48E062CDE9007553465A46204604998C
:1017400001F05CFD70B930E02A463946204601F0D0
:10175000CDFF58B1206C042804D12068016841F401
:1017600000710160012007B0BDE8F08F606A216858
:1017700000780861606A401C6062218D491E89B250
:101780002185628D521E628522685369DB435B07A7
:101790000BD469B100781061606A401C6062208DD2
:1017A000401E2085608D401E6085208D0028CBD195
:1017B0002A463946204601F08FFE0028CAD154F847
:1017C0003D0B016841F400710160202004F81E09FE
:1017D000E67766770020C6E7FFE70220C3E7000050
:1017E000020010000000FFFF70B586B0064614210D
:1017F0006846FEF740FD27493068884247D12648B1
:101800000025016841F0020101600068694600F0AE
:1018100002000590C02000901220CDE901050320B0
:101820000390042004901D48FFF7D4F91A481030A3
:10183000016841F40011016000681A4C00F40010C6
:101840000590174820604005C4E90105C013C4E9AC
:101850000350C000C4E90550E56125622046656279
:10186000FFF704F908B1FEF7CEFFB463002211467A
:101870001F20A66300F0AEF81F2000F09DF80022A4
:101880001146202000F0A6F8202000F095F806B0C0
:1018900070BD000000540040303802400004024097
:1018A000106002407810002070477047024881683D
:1018B00002781144816070470C0000200B4810B57D
:1018C000016841F400710160016841F480610160C8
:1018D000016841F480710160032000F09BF80F2043
:1018E00000F006F800F050F8002010BD003C024067
:1018F00030B505461F4887B00024016841F020013B
:101900000160006806A900F02000009001A800F026
:101910002DF90498A8B100F049F940001649174A7A
:10192000B0FBF1F11648491E026040F2E732C0E90F
:101930000324C0E90114846100F08AFB040003D091
:1019400015E000F033F9E9E70D4800F0CDFB0400A5
:101950000DD1372000F030F8102D07D20022294693
:10196000372000F037F80748056000E0012407B091
:10197000204630BD4038024040420F000014004075
:10198000B0110020100000200A4808B5016841F499
:1019900080410160006800F4804000900548001F0D
:1019A000016841F080510160006800F080500090B3
:1019B00008BD000044380240002809DB00F01F0287
:1019C000012191404009800000F1E020C0F80011A1
:1019D00070470000F0B40E4B1B680C46C3F30223A3
:1019E000C3F10705042D00D90425191D072901D2CB
:1019F000002300E0DB1E012606FA05F1491E214006
:101A000099409E40761E16403143F0BC02F09ABACF
:101A10000CED00E0064900F0070208684FF6FF03EE
:101A2000184040EA0220034A104308607047000053
:101A30000CED00E00000FA052DE9F0470E46050028
:101A400065D0DFF81481D8F80000F7B200F0070085
:101A5000B04207D288F80070D8F8000000F0070004
:101A6000B04254D128683D4C810712D5400703D5B8
:101A7000206840F4E05020602878000703D52068F3
:101A800040F4604020602068A96820F0F00008431E
:101A900020602878C0072DD03049686808390128AF
:101AA00012D0022813D0032811D009688907002911
:101AB0002DDA216821F0030101432160FFF790F93D
:101AC000814641F2883A0EE009688903EFE7096828
:101AD0008901ECE7FFF784F9A0EB0901514502D930
:101AE0000320BDE8F0872068696800F00C00B0EBC7
:101AF000810FEFD1D8F80010404601F00701B14244
:101B000007D90770006800F00700B04201D001203B
:101B1000E7E72878400705D52068E96820F4E05019
:101B2000084320602878000706D52068296920F43A
:101B3000604040EAC100206000F058F82168084A7F
:101B4000C1F30311515CC8400649086006480068AB
:101B5000FFF7CEFE0020C4E7003C024008380240F8
:101B6000184B000818000020100000200F2202600F
:101B70000C4A136803F003034360136803F0F00397
:101B80008360136803F4E053C36012684FF4E053BA
:101B900003EAD20202610448006800F0070008600E
:101BA0007047000008380240003C024004480549E4
:101BB00000680968044AC1F38221515CC84070473B
:101BC0001800002008380240284B00080448054946
:101BD00000680968044AC1F34231515CC84070474B
:101BE0001800002008380240284B0008154810B59E
:101BF000006810F00C02144813D01449042A0FD0C6
:101C0000082A0ED10F4C241F2268236802F03F02DD
:101C10005B0207D52068C0F38810A0FB010106E035
:101C2000084610BD2168C1F38811A1FB0001002303
:101C3000FEF7C8FA2168C1F30141491C4900B0FB15
:101C4000F1F010BD083802400024F40040787D0116
:101C50002DE9F84F04006ED02078DFF84C93C007D0
:101C6000A9F104054AD009F104000168C1F381011A
:101C7000012908D00068C0F3810002280AD1D9F8F0
:101C80000000400206D52868800337D56068002828
:101C9000E1D033E06068B0F5803F10D0B0F5A02F00
:101CA000286810D020F480302860286820F4802034
:101CB00028606068A8B1FFF793F806460DE0286831
:101CC00040F48030F4E740F480202860F7E700BF5C
:101CD000FFF786F8801B642873D828688003F7D53F
:101CE0000CE0FFF77DF8064605E000BFFFF778F847
:101CF000801B6428F0D828688003F7D42078DFF8A8
:101D0000AC8280074FF0000A3ED5A748001D01684D
:101D100011F00C0F08D00068C0F3810002280BD12D
:101D2000D9F80000400207D42868800716D5E0687B
:101D3000012800D112E033E1E068B8B10120C8F811
:101D40000000FFF74DF8064605E000BFFFF748F832
:101D5000801B0228C0D828688007F7D52868216929
:101D600020F0F80040EAC10028600DE0C8F800A0AB
:101D7000FFF736F8064604E0FFF732F8801B02282A
:101D80001FD828688007F7D42078000722D5864F0F
:101D900087486169703771B101210160FFF720F850
:101DA000064604E0FFF71CF8801B022809D83868B3
:101DB0008007F7D50EE0C0F800A0FFF711F806463F
:101DC00005E082E0FFF70CF8801B02287DD8386818
:101DD0008007F7D42078400768D5DFF8CCB100271A
:101DE0000BF13C0BDBF80000C0000BD4DBF800105B
:101DF00041F08051CBF80010DBF80000012700F023
:101E0000805000906B4E3068C00510D4306840F4AC
:101E100080703060FEF7E4FF009005E0FEF7E0FF21
:101E20000099401A022850D83068C005F6D55E4E99
:101E3000A0686C3601280FD00528306810D020F03B
:101E400001003060306820F004003060A068B8B154
:101E5000FEF7C6FF00900FE0306840F00100F4E7A5
:101E600040F004003060F7E7FEF7BAFF0099411A2E
:101E700041F28830814266D830688007F4D50EE0A0
:101E8000FEF7AEFF009007E0FEF7AAFF0099411AA7
:101E900041F28830814256D830688007F4D42FB19F
:101EA000DBF8001021F08051CBF80010A069C8B316
:101EB0003D49091D0968C1F3810102294AD0022860
:101EC000504607D0C8F8600000E03CE0FEF788FF0D
:101ED00004463BE04746C8F86000FEF781FF06462F
:101EE00005E000BFFEF77CFF801B02282BD8286886
:101EF0008001F7D4D4E907010843A16A2E4A4908B2
:101F000002EB0141626A41EA8211084394F82C1005
:101F100040EA0161C9F8001001203866FEF760FF51
:101F2000044606E03EE000BFFEF75AFF001B022811
:101F300009D828688001F7D534E000BFFEF750FFCC
:101F4000001B022802D90320BDE8F88F2868800111
:101F5000F4D427E00128F7D0D9F80000E26900F4B2
:101F6000800191421CD1226A00F03F01914217D1B9
:101F700047F6C071626A0140B1EB821F10D1A26ABC
:101F80004FF0FF3300F4403103EB5202B1EB024F4C
:101F900006D194F82C1000F07060B0EB016F01D006
:101FA0000120D1E70020CFE704380240000047427B
:101FB000800E4742007000400000FFFF70477047EE
:101FC00070B590F83C20012A32D0012480F83C40C2
:101FD000022280F83D2003685A689D6822F070064E
:101FE0000A6832435A60134B02689A4214D0B2F125
:101FF000804F11D0104B9A420ED0104B9A420BD00A
:102000000F4B9A4208D00F4B9A4205D00E4B9A4282
:1020100002D00E4B9A4204D1496825F0800319433F
:10202000916080F83D40002180F83C10084670BD6A
:10203000022070BD00000140000400400008004084
:10204000000C004000040140004001400018004026
:1020500010B5040003D094F83D0010B107E0012052
:1020600010BD002084F83C00204600F01FF802203C
:1020700084F83D00211D206801F05AFD012084F8FC
:10208000460084F83E0084F83F0084F8400084F85D
:10209000410084F8420084F8430084F8440084F846
:1020A000450084F83D00002010BD000008B5006820
:1020B0000B49884212D10B48016841F002010160CE
:1020C0000068002200F00200009011461D20FFF77A
:1020D00081FCBDE808401D20FFF76EBC08BD000074
:1020E000000400404038024090F83D10012901D022
:1020F00001207047022180F83D100168CA6842F053
:102100000102CA6000681149884214D0B0F1804FC2
:1021100011D00F4988420ED00E4988420BD00E498B
:10212000884208D00D49884205D00D49884202D026
:102130000C49884204D1816801F00701062903D0C7
:10214000016841F00101016000207047000001407A
:102150000004004000080040000C00400004014062
:10216000004001400018004070B5044690F83C0063
:102170000025012817D0012684F83C60022084F84D
:102180003D002068826822F0770222F47F4282605C
:102190000868502838D00DDC20284FD005DC90B3DB
:1021A000102811D14AE0022070BD302846D04028C6
:1021B0000AD13BE060282FD070280DD0B0F5805FA9
:1021C00003D0B0F5005F12D0012584F83D600020F7
:1021D00084F83C00284670BDCB68D1E90121206815
:1021E00001F00EFD2068816841F0770109E0CB68BD
:1021F000D1E90121206801F003FD2068816841F4E4
:1022000080418160E1E719E0CA684968206801F00F
:1022100009FD5021206806E0CA684968206801F07D
:1022200012FD6021206801F0F5FCCEE7CA6849681C
:10223000206801F0F7FC40212068F4E7226801469D
:102240001046F0E770472DE9F04104460068C66883
:1022500005694FF00007A90713D5B10711D5F91E7D
:10226000016101202077206880698007204602D024
:10227000FFF7E8FF04E000F07EF8204600F07CF86D
:102280002777680716D5700714D521686FF004000A
:102290000861022020772068806910F4407F204682
:1022A00002D0FFF7CFFF04E000F065F8204600F011
:1022B00063F82777280715D5300713D521686FF005
:1022C00008000861042020772068C0698007204644
:1022D00002D0FFF7B7FF04E000F04DF8204600F011
:1022E0004BF82777E80616D5F00614D521686FF06D
:1022F00010000861082020772068C06910F4407F32
:10230000204602D0FFF79EFF04E000F034F820469C
:1023100000F032F82777E80708D0F00706D02168E8
:102320006FF001000861204600F028F8280608D563
:10233000300606D521686FF0800008612046FFF75F
:102340003DFE680608D5700606D521686FF040008E
:102350000861204600F01CF8A8060AD5B00608D58A
:1023600021686FF0200008612046BDE8F041FFF7CA
:1023700026BEBDE8F0817047704700000068034941
:10238000884201D1FFF792BA704700000014004064
:102390007047704770470000F8B501680446086848
:1023A000CA684B6910F00F0F4FF0000559D003F0C9
:1023B000010602F49077374365D0C10705D0D105F7
:1023C00003D5616C41F001016164410705D5D9076E
:1023D00003D0616C41F002016164810705D5D90722
:1023E00003D0616C41F004016164010707D502F07C
:1023F0002001314303D0616C41F008016164616CDC
:1024000000293AD0800604D5900602D5204601F076
:102410005AFC20684069616CC0F38010090700D441
:1024200060B3204601F028FC20684069400621D5B1
:102430002068143050E8001F21F0400140E80012ED
:10244000002AF5D1E06BA8B172490165E06BFEF797
:1024500025FA002811D0E06B016D01B0BDE8F04015
:10246000084783060FD593060DD52046BDE8F840F2
:1024700001F029BC2046FFF78DFFF8BD2046FFF78D
:1024800089FF6564F8BD266B2023012E7ED1C60628
:102490007CD5D6067AD508684868009048694FF020
:1024A000020640064DD5E26B106840684FF4807715
:1024B0000004000C3AD0A18D814237D9E085D06963
:1024C000B8422DD020680C3050E8001F21F48071F4
:1024D00040E80012002AF5D12068143050E8001FAF
:1024E00021F0010140E80012002AF5D120681430E3
:1024F00050E8001F21F0400140E80012002AF5D109
:1025000084F84230256320680C3050E8001F21F029
:10251000100140E80012002AF5D1E06BFEF775F9D2
:102520006663A08DE18D401A81B206E0A18D8142E3
:10253000A8D1D069B842A5D166632046FFF729FF2C
:10254000F8BDA08DE18D401A81B2E08D0028F7D052
:102550000029F5D020680C3050E8002F22F490724A
:1025600040E80027002FF5D12068143050E8002FF4
:1025700022F0010240E80027002FF5D184F8423014
:10258000256320680C3050E8002F00E006E022F0C0
:10259000100240E80023002BF3D1CDE705062BD530
:1025A000150629D594F841002128C9D1A068B0F5B5
:1025B000805F01D12069B0B1206A411C216221688D
:1025C00000784860E08C401E0004000CE084B7D125
:1025D0002068C16821F08001C1602068C16841F0B5
:1025E0004001C160F8BD206A0088C0F3080048605F
:1025F000206A801C2062E5E74006F3D55006F1D53D
:10260000CA68204622F04002CA6084F8413000F0D7
:10261000EAF8F8BD6B3C000870B5040004D094F8EB
:102620004100002510B106E0012070BD84F8405043
:10263000204600F023F8242084F841002068C16877
:1026400021F40051C160204601F09EFB2068016921
:1026500021F4904101612068416921F02A01416122
:102660002068C16841F40051C1606564202084F88D
:10267000410084F842006563002070BDF0B587B06A
:10268000044614216846FDF7F6FD2A4F2368002210
:1026900029490224032507262848BB4221D1264B7D
:1026A00014331F6847F010071F601B6803F0100306
:1026B00005930B6843F001030B60096802AB01F05E
:1026C000010105916902CDE9001483E864006946BF
:1026D000FEF780FA002211462520FFF77BF925201E
:1026E00023E0174FBB4222D1134B10331F6847F42E
:1026F00000371F601B6803F4003305930B6843F039
:1027000001030B60096802AB01F0010105910C2186
:10271000CDE9001483E864006946FEF75BFA002205
:1027200011462620FFF756F92620FFF745F907B096
:10273000F0BD0000001001403038024000000240AF
:102740000044004070472DE9F843044690F84100EA
:10275000984616460D46202802D00220BDE8F88390
:1027600085B17EB100206064212084F84100FEF72D
:1027700037FBA6848146E684A0682027B0F5805FF9
:1027800002D003E00120E9E7206910B12E460025C0
:102790000EE000260CE08021204601F07BFBA8B96A
:1027A000C6B116F8010B21684860E08C401EE08439
:1027B000E08C4B464FF00002CDF800800028EAD1B3
:1027C0004FF04001204601F065FB40B184F84170B4
:1027D0000320C3E735F8020BC0F30800E3E784F8F1
:1027E00041700020BAE77047FEE700000148FEF79D
:1027F000FFBA0000241000200148FEF756BB00007D
:102800002410002038B5806B002190F83D202B4B20
:1028100046F2A8141B68B3FBF4F3C3EBC30303EB4A
:10282000830300933BB15B1E009303681B689B0509
:1028300005D5009BF6E7036C43F020030364436B6C
:1028400003B1D963836B03B1D96303681C6824F4B3
:1028500080641C604185436B03B11965836B03B1D0
:10286000196503681C6824F001041C6090F83D4061
:102870002023602C0BD0282434EA02020FD080F8E9
:102880003D3080F83E1000BFFEF728FC38BD80F8D0
:102890003D3080F83E100164FEF7A8FA38BD0268AA
:1028A000136843F0010313600268136843F4806304
:1028B0001360016380F83D40E6E700001800002047
:1028C00070B5846B0025616B01B1CD63A16B01B163
:1028D000CD63FDF7F5FF022811D02068016821F4CF
:1028E000806101606585202084F83D0084F83E50B9
:1028F000206C40F0100020642046FEF7EFFB70BD16
:102900002DE9F041846B94F83D2094F83E50E16A43
:102910002068436823F440734360636B002003B175
:10292000D863A36B03B1D863212333EA02074FF0C6
:1029300022060CD036EA020701D1202D07D094F8E8
:102940003E20002A21D0628D012A20D024E0216877
:102950004D6825F400654D6060852820292A02D045
:102960002A2A07D00CE0236384F83D002046FEF7B6
:102970009CFF05E0266384F83D002046FEF794FFA7
:102980002068416841F440714160BDE8F0812268EF
:10299000136823F4806313602268536823F4407340
:1029A000536011F5803F06D0082904D0B1F12A4FB9
:1029B00001D0202904D12268136843F40073136006
:1029C0002268536823F4805353602268536823F4C9
:1029D000006353606085226C1AB12046FEF77EFBCF
:1029E000D3E7202284F83D2094F83E2084F83E006E
:1029F000402A09D0082902D0202900D012202063C3
:102A00002046FEF740FCC0E720632046FEF73EFC70
:102A1000BBE700684169C943090601D4002101618F
:102A20007047000070B5044690F83D0094F83E10E1
:102A3000102901D0402906D1222804D121680A6832
:102A400022F400620A60282131EA00024FF00005FA
:102A50004FF0200626D021684968090505D4602872
:102A600003D084F83D6084F83E50256320684168B7
:102A7000090537D5416821F400614160606B90F829
:102A800035203C49012A11D00165606BFDF706FF36
:102A900038B32068016821F00101016084F83D60CD
:102AA000606B1CE0256384F83D10DFE7A06B0165D7
:102AB000A06BFDF7F3FEA0B120684169C943490648
:102AC00005D40069616A0870606A401C6062206811
:102AD000016821F00101016084F83D60A06B016D87
:102AE000884710E094F83D10602910D04169C9432F
:102AF000490605D40069616A0870606A401C60621A
:102B00002046FEF7EBFA206CC1071CD115E084F8D3
:102B10003D6025644169C943490605D40069616A7D
:102B20000870606A401C60622068016821F0010141
:102B300001602046FEF75AF9E5E7810703D4410713
:102B400001D4000704D52068416821F4E0614160A8
:102B500094F83D00216C49070BD5282809D1064877
:102B6000E062256384F83D6084F83E502046FEF71D
:102B700089FB70BD052800080000FFFF01684A6955
:102B8000D24352050FD46FF480624A61002140F8AD
:102B9000301F202242738173026942F004020261F5
:102BA0000173012070470020704710B5C26A438D41
:102BB0000168042B06D0438D032B08D0438D022BD4
:102BC0001DD012E04A6822F480624A600CE04B6833
:102BD00023F480634B60042A06D0022A04D00168E3
:102BE0000A6822F480620A6001680969426A117009
:102BF000416A491C4162418D491E418510BD012A2F
:102C000034D0102A32D0042A34D0022A32D00B68B1
:102C100043F400730B6001680969436A1970416AE3
:102C2000491C4162438D5B1E438503681B690B7021
:102C3000416A491C4162418D491E418501684B68CA
:102C400023F440734B60202180F83D1090F83E3013
:102C50000021402B80F83E1010D0082A02D0202AF4
:102C600000D012210163FEF70EFB10BD0B6823F4A8
:102C70008063CFE70B6843F48063CBE70163FEF723
:102C800005FB10BD38B590F83D10222910D1C36A5C
:102C9000418D03290DD901680969426A1170416AA1
:102CA000491C4162418D491E4185418D032906D051
:102CB00038BDC26A022A02D0012906D029B10068B3
:102CC000416821F48061416038BD2A4A46F2A81467
:102CD00000211268B2FBF4F202EB82020092026859
:102CE0002024009D6D1E009526D01568AD05F8D4F2
:102CF000156825F4806515600268556825F4E0655F
:102D0000556002681269456A2A70426A521C426222
:102D1000428D521E428580F83D4090F83E2080F85A
:102D20003E10402A21D0082B02D0202B00D01221A7
:102D30000163FEF7A8FA38BD036C43F02003036477
:102D4000536823F4E063536002681269436A1A709F
:102D5000426A521C4262428D521E428580F83D40BA
:102D600080F83E10FEF7BAF938BD0163FEF78EFA1F
:102D700038BD00001800002010B5C26A90F83D1060
:102D800021290BD1418D51B1416A02680978116145
:102D9000416A491C4162418D491E418510BD202375
:102DA0000021082A13D0202A11D012F5803F0ED01E
:102DB0000268546824F4E06454601122026380F8CD
:102DC0003E1080F83D3000BFFEF75EFA10BD02688D
:102DD000546824F4E06454600268146844F4007495
:102DE0001460016380F83D3090F83E2080F83E107A
:102DF000402AE9D1FEF776FA10BD000010B590F830
:102E00003D1090F83E30C26A048DB4B1212903D040
:102E1000402B11D122290FD1418DE1B390F83E1002
:102E2000402942D0416A026809781161416A491C0F
:102E30004162418D491E418510BD2129E8D12023E1
:102E40000021082A13D0202A11D012F5803F0ED07D
:102E50000268546824F4E06454601122026380F82C
:102E60003E1080F83D3000BFFEF70EFA10BD02683C
:102E7000546824F4E06454600268146844F40074F4
:102E80001460016380F83D3090F83E2080F83E10D9
:102E9000402AE9D100E002E0FEF724FA10BD006804
:102EA000416821F48061416010BDBDE8104000F030
:102EB000D3B8000078B590F83E50C26A036B90F822
:102EC0003D6000240168222E7AD1066D0EB9402D96
:102ED00076D0056D1DB90569B5F5404F09D0458D12
:102EE00005B3468D384D012E0ED0438D022B3AD0BE
:102EF0005DE04A698A6900920A6842F480720A6059
:102F0000016D491C016578BDAA4213D10A6822F4FB
:102F100080620A6001684A68120503D50A6822F4D3
:102F2000806216E04A698A6900920A6842F4007277
:102F30000A6039E0082A10D0202A0ED0122B0AD0BD
:102F4000042A03D0022A01D0102AE7D10A6842F4E9
:102F500080620A6024E0012AE0D00A6822F48062DC
:102F60000A600168DEE7042A21D0022A1FD0102A55
:102F70001DD00B6823F480630B6001680B6843F479
:102F800000630B6001684B681B0509D5AA4212D08B
:102F9000012A10D0082A0ED0102A0CD0202A0AD0DC
:102FA00001684A6989690091046578BD08E00B6889
:102FB00043F48063E5E74A6842F480524A60EFE7F1
:102FC000486988690090F0E70000FFFF90F83E1024
:102FD000402910D00169B1F5804F19D0016DA9B316
:102FE000016D012910D1416C5FF0F10201F44071D3
:102FF00042EAD11106E0016D0029416C05D0C9B249
:1030000041F0010100680161704701F0FE01F9E73C
:1030100090F83D102129416C09D0C9B241F001015D
:1030200002681161416B29B1C96B49B902E001F035
:10303000FE01F5E7816B0029E6D0C96B0029E3D0DA
:103040000068416841F4006141607047FFE7416CEE
:10305000F02201F44071CBE710B590F83D10026DFD
:103060004AB1026D012A14D0026D022A16D0BDE8C1
:103070001040FFF7CEBCC16C0129816C02D0C1F3B6
:10308000072108E00268C9B21161016D891C016560
:1030900010BD816CC9B20268116123E022291CD0E5
:1030A000428D0AB1212920D0428D002AF0D1212958
:1030B000EED101684A6822F4E0624A6001680A6859
:1030C00042F400720A6000210163202280F83D2052
:1030D00080F83E10FEF706F910BD01680A6842F458
:1030E00080720A60016D491CD1E7416A0268097863
:1030F0001161416A491C4162418D491E418510BDE3
:103100002DE9F84F0446006889460B9D01689846F2
:10311000174641F4806101602068016841F48071C4
:10312000016000954FF0011B0022594620460A9B82
:1031300000F0FEF94FF4007A40B120680068C00545
:1031400001D5C4F840A00320BDE8F88F216809F03C
:10315000FE0008612B46284920460A9A00F030FA02
:10316000F0BB20684169806900902A4620460A9990
:1031700000F0BCFA40B1206C04283AD12068016804
:1031800041F40071016034E0FEB2B8F1010F09D0E2
:103190002168380A08612A4620460A9900F0A6FAF2
:1031A0000028E8D1206806612A4620460A9900F0E6
:1031B0009DFA0028DFD12068016841F48071016028
:1031C00000950022594620460A9B00F0B1F90028DC
:1031D000B3D1216809F0FF0040F00100086100E070
:1031E00007E02B46044920460A9A00F0E9F9002836
:1031F000AAD00120A8E70000020001002DE9F84351
:10320000044600680D46DDE90897016898461646B1
:1032100041F4807101604B4600224FF001112046BD
:10322000009700F085F948B120680068C00502D514
:103230004FF4007020640320BDE8F883216805F096
:10324000FE0008613B464A461549204600F0B8F9A1
:1032500088B920684169806900903A46494620460D
:1032600000F044FA48B1206C042804D120680168B9
:1032700041F4007101600120DEE7F5B2B8F1010F01
:1032800009D02168300A08613A464946204600F0D4
:103290002DFA0028E7D1206805610020CCE7000066
:1032A0000200010038B50C4690F83D200021282589
:1032B000954302680B4605D051699169009180F8E9
:1032C0003C3038BD556825F480655560E2435407AD
:1032D00000D50121120601D5828900E0028B80F819
:1032E0003C3092B2FDF783FD38BD00002DE9F0417E
:1032F00090F83D300446C26A002120261E4F006827
:103300006FF48065082A01D0202A01D1282B04D02F
:10331000212B17D04561BDE8F081E762426822F4B5
:10332000E0624260206845612068026822F48062A1
:103330000260216384F83D6084F83E102046FDF76A
:10334000A1FFE8E7E7622122226384F83D6084F868
:103350003E10416821F4E0614160206845612068C9
:10336000016821F4806101602046FFF752FB20468E
:10337000FEF79BFACFE700000000FFFFF8B590F8DA
:103380003D6004460068416821F4E06141602068C6
:10339000002541690091016841F001010160206848
:1033A000016821F48061016020684168090520D529
:1033B000474F222E48D02A2E46D0616B09684968B3
:1033C0006185618D19B1216C41F00401216441686E
:1033D00021F400614160606BFDF774FA012808D0A8
:1033E000606B0765606BFDF759FA10B1606B016D9A
:1033F0008847608D08B320684169C943490708D4EC
:103400000069616A0870606A401C6062608D401EDD
:10341000608520684169C943490608D40069616A2A
:103420000870606A401C6062608D401E6085608D1F
:1034300018B1206C40F004002064206C00B32046DA
:10344000BDE8F840FFF7EEBAA16B096849686185ED
:10345000618D19B1216C41F004012164416821F4AE
:1034600000614160A06BFDF72DFA0128C1D0A06B6F
:103470000765A06BFDF712FA0028BAD0A06BB6E77B
:103480002A2E06D12563282084F83D002046FEF729
:103490000BFA94F83D10202028290DD0216B222909
:1034A00001D0222E07D1256384F83D0084F83E50D8
:1034B0002046FEF7F9F9F8BD0649E162256384F874
:1034C0003D0084F83E502046FDF7DCFEF8BD0000CC
:1034D000052800080000FFFF70B516460D4604469B
:1034E0001EE02046FFF74AFB08B1012070BD681CB2
:1034F00016D0FDF775FC801BA84200D885B920685E
:103500004069C04340070BD5002044F8300F20210C
:103510006173A073216941F0200121612073E4E708
:1035200020684069C0434007DBD4002070BD000024
:103530002DE9F047984617460D460446C1F3074665
:10354000DDF820902AE000BFB8F1FF3F26D0FDF75C
:1035500047FCA0EB0901414502D8B8F1000F1DD18D
:103560002068012E16D0806925EA00000004000CB6
:1035700012D00020B84211D1002044F8300F202191
:103580006173A073216941F0200121612073012042
:10359000BDE8F0874069E7E70120EBE72068012EEE
:1035A0000AD0806925EA00000004000C06D0002043
:1035B000B842C9D00020EBE74069F3E70120F7E704
:1035C0002DE9F047984616460D4604464FF000098F
:1035D0004FF0200AC1F3074723E020684069C04349
:1035E000400515D42068016841F40071016021682C
:1035F0006FF480604861C4F8309084F83DA084F88E
:103600003E90216C41F00401216484F83C9021E05B
:10361000701C06D0FDF7E4FBA0EB0800B04203D815
:1036200016B1012F1FD021E02068012F15D080692D
:1036300025EA00000004000C18D000BF44F8309FB9
:1036400084F80DA084F80E90216941F020012161D9
:1036500084F80C900120BDE8F087406925EA00005D
:103660000004000CEAD12068406901E0206880690C
:1036700025EA00000004000CAFD1ECE72DE9F04191
:10368000002590460E460446202728E04069C043A6
:10369000C0060CD454F8301B6FF01000486144F899
:1036A00010596777A577206A2062257714E0FDF727
:1036B00097FBA0EB0800B04200D886B920684069AB
:1036C000C04340060BD544F8305F6773A57320698B
:1036D00040F02000206125730120BDE8F0812068C2
:1036E0004169C9434906D1D40020F6E770B51646B2
:1036F0000D4604461EE02046FFF740FA08B10120BF
:1037000070BD681C16D0FDF76BFB801BA84200D86B
:1037100085B920684069C04300060BD5002044F8F5
:10372000300F20216173A073216941F020012161D4
:103730002073E4E720684069C0430006DBD4002022
:1037400070BD0000F0B585B0012504A8CDE90005E5
:1037500064242B467522D02102942D48FDF7C4FD28
:10376000060006D001462BA000F0DCFB304605B079
:10377000F0BD9DF81010682904D02FA000F0D2FBF6
:103780000120F4E736A000F0CDFB002703AE8DF852
:103790000C700096CDE9015401236B22D0211C4806
:1037A000FDF78AFF0A20FDF703FA07208DF80C00C9
:1037B0000096CDE9015401231922D0211448FDF7C8
:1037C0007BFF03208DF80C000096CDE90154012306
:1037D0001A22D0210E48FDF76FFF8DF80C7000966D
:1037E000CDE9015401231B22D0210948FDF764FFD4
:1037F0008DF80C700096CDE9015401231C22D021D4
:103800000348FDF759FF1FA000F08CFB0020AEE736
:10381000241000204D5055363035302057484F5F2A
:10382000414D5F492072656164206661696C656421
:103830003A2025640D0A00004D50553630353020B1
:1038400057484F5F414D5F4920636865636B206651
:1038500061696C65643A203078253032580D0A0071
:103860004D50553630353020646574656374656439
:103870002C2057484F5F414D5F493D30782530320D
:10388000580D0A004D50553630353020696E697438
:1038900069616C697A6564207375636365737366C7
:1038A000756C6C792E0D0A00094808B5016841F461
:1038B000001101600068002200F400100090114621
:1038C0000B20FEF787F8BDE808400B20FEF774B820
:1038D0003038024030B587B014216846FCF7CBFC85
:1038E00019480024016841F004010160016801F0F9
:1038F00004010591016841F080010160016801F057
:1039000080010591016841F001010160016801F049
:1039100001010591016841F00201016000680B4D51
:1039200000F002000590002240212846FDF752FADF
:10393000402000900120CDE9010469462846039407
:10394000FDF748F907B030BD3038024000000240B2
:103950000D4810B50B4901600C49416000214FF43E
:1039600080428160C0E9031241618161C1610162ED
:10397000FDF7C4FB002803D0BDE81040FCF743BFAF
:1039800010BD00000054004024100020801A0600E2
:1039900010B586B000241748009401940294039453
:1039A00004941349059401605321C0E90114F921DD
:1039B000C0E903148461FEF74BFB08B1FCF723FF59
:1039C0004FF48050009069460A48FEF7CDFB08B1DD
:1039D000FCF719FF2020CDE9040404A90548FEF7EF
:1039E000EFFA002801D0FCF70EFF06B010BD000072
:1039F00000040040D81000200C4810B50A490160AE
:103A00004FF4E1314160002181600C22C160C0E9C6
:103A100004128161C161FEF7FFFD002803D0BDE8FB
:103A20001040FCF7F0BE10BD001001402011002036
:103A30000C4810B50A4901604FF4E13141600021A2
:103A400081600C22C160C0E904128161C161FEF78E
:103A5000E3FD002803D0BDE81040FCF7D4BE10BD44
:103A60000044004068110020FEE7FEE77047704701
:103A70007047000030B593B030216846FCF7FBFB7F
:103A800014210CA8FCF7F7FB1D480025016841F044
:103A900080510160006800F0805011901948016861
:103AA00041F4804101600068022400F480401190DC
:103AB0000120039010200490009406940820CDE982
:103AC0000750A820CDE9090404200B906846FEF7B2
:103AD000BFF808B172B6FEE70CA90F2081E83100EB
:103AE0004FF4A0500F904FF48050109005210CA877
:103AF000FDF7A2FF002801D072B6FEE713B030BD7B
:103B000040380240007000400248016841F47001F2
:103B10000160704788ED00E00148FEF794BB0000AB
:103B2000D81000200148FEF78EBB0000B011002025
:103B3000F0B50268274B284D284E294F294C4FF0ED
:103B4000804C984209D0604507D0A84205D0B042C9
:103B500003D0B84201D0A04204D122F0700E4A68CE
:103B600042EA0E0298421BD0604519D0A84217D0F5
:103B7000B04215D0B84213D0A04211D01A4DA8427D
:103B80000ED01A4DA8420BD0194DA84208D0194D9D
:103B9000A84205D0184DA84202D0184DA84203D122
:103BA00022F44075CA682A434D6922F080022A43F4
:103BB0008D68C5620D688562984201D0A04201D12E
:103BC00009690163016841F004010160012141615B
:103BD0000260F0BD00000140000400400008004009
:103BE000000C00400004014000400140004401403E
:103BF0000048014000180040001C00400020004028
:103C000010B5846842EA032224F47F440A43224325
:103C1000826010BD826822F070020A4342F0070100
:103C20008160704710B5036A046A24F001040462DD
:103C3000846924F0F00444EA021423F00A020A43DF
:103C40008461026210BD10B5036A046A24F0100496
:103C50000462846923F0A00324F4704444EA02322D
:103C600043EA01118261016210BD10B5806B002131
:103C7000C185FEF78FFB10BD01680C3151E8002FA4
:103C800022F4907241E80023002BF5D10168143131
:103C900051E8002F22F0010241E80023002BF5D16A
:103CA000016B012909D101680C3151E8002F22F084
:103CB000100241E80023002BF5D1202180F84210AA
:103CC00000210163704708B590F84210222901D005
:103CD000022008BD82684FF480539A4201D10169E5
:103CE00021B1816A9A421BD04AB10AE00268816A16
:103CF0005268C2F308020A80816A891C08E00269DE
:103D000072B10268526802F07F020A70816A491C2F
:103D10008162C18D491E0904090CC18503D01BE0D5
:103D200002685268F1E70168CA6822F02002CA609E
:103D30000168CA6822F48072CA6001684A6922F088
:103D400001024A61202180F8421000214163026B88
:103D5000012A03D0FEF7F6FC002008BD01630168CC
:103D60000C3151E8002F22F0100241E80023002B13
:103D7000F5D101680A68D20602D50A68496800913F
:103D8000818DFEF706FBE7E770B504460068016920
:103D9000E26821F44051114301612169A068E269A0
:103DA00008436169114308432168CA6849F20C63FA
:103DB0009A430243CA6020684169A26921F44071B4
:103DC0001143416131492068884202D0304988421C
:103DD00002D1FDF7FBFE01E0FDF7E8FEE2690023FA
:103DE000192164253226B2F5004F626828D0A0FB65
:103DF0000101930F9200FCF7E5F90146B0FBF5F0E5
:103E00006FF01802504301EB800006EB0010B0FB8E
:103E1000F5F000F0F002B1FBF5F002EB0012B1FB9F
:103E2000F5F06FF01803584301EB800006EB00102B
:103E3000B0FBF5F000F00F0021681044886070BD01
:103E4000A0FB010192185B41FCF7BCF90146B0FBF5
:103E5000F5F00201B1FBF5F06FF01803584301EBE8
:103E6000800006EBC000B0FBF5F000F0F80002EBBC
:103E70004002B1FBF5F0584301EB800006EBC000B7
:103E8000B0FBF5F000F00700D6E70000001001409D
:103E9000001401402DE9F843984617460D460446A4
:103EA000089E24E0701C22D0FCF79AFFA0EB0800CB
:103EB000B0421AD8CEB12068C168490717D5802D05
:103EC00015D0402D13D00168C94309070FD40168EC
:103ED0000025406800902046FFF7CEFE0820606471
:103EE00084F840500120BDE8F8830320FBE72068F8
:103EF000006835EA000004D00020B842D2D000208B
:103F0000F1E70120F9E700000148FEF745BA00009B
:103F1000201100200148FEF73FBA00006811002080
:103F2000FEE700000FB4054B10B503A9044A029840
:103F300000F00CF910BC5DF814FB000055480008B7
:103F40001C0000200907090E002804DB00F1E02016
:103F500080F80014704700F00F0000F1E02080F8B6
:103F6000141D704710B52DED028BB1EEC08A18EE0E
:103F7000100A20F00040C0F1FF40C00F0AD010EE40
:103F8000100A20F00040C0F1FF40C00F04BF012024
:103F900000F014F8B0EE480ABDEC028B10BD02E050
:103FA00008C8121F08C1002AFAD1704770470020C4
:103FB00001E001C1121F002AFBD1704701490860CE
:103FC00070470000200000202DE9FF5F82B0002133
:103FD000DDE90430020DDDF840B0034318D044F6AB
:103FE0001050A2F2FF3242431514119801281FD03D
:103FF000A5EB0B00401C5FEA000A4FF000064E4F95
:10400000DFF83891B046504615D5CAF1000413E0E8
:10401000119801244AA3012801D16FEA0B010298EB
:10402000119AC0E90031C0E9024206B0BDE8F09F34
:10403000CBF10000DFE704460021404A491842EB7B
:104040000450CDE9001012E0E00707D032463B46AD
:1040500040464946FCF7C1F98046894632463B4610
:1040600010461946FCF7B9F906460F466410002CB5
:10407000EAD1DDE90401DDE90023BAF1000F06DA37
:10408000FCF7ABF942464B46FCF7A7F905E0FCF715
:1040900016FA42464B46FCF712FA04460E46002238
:1040A000284BFCF78FFA03D84FF0FF30014607E0AA
:1040B0000022254B20463146FCF7E8F8FCF71DFBB3
:1040C000102409E0002C0ADB0A220023FCF77AF80E
:1040D000039B30321A55641E50EA0102F2D1641C6F
:1040E000039AC4F111031444119A012A03D0012246
:1040F00008430DD10AE0084304D000204FF0110B13
:10410000119072E7A3EB0B056D1E0DE05B4504DD1E
:104110004FF0000205F1010504E003DA4FF0000260
:10412000A5F10105002AECD002981199C0E90231ED
:10413000C0E9004579E70000000014400000F03FAE
:10414000300000000000F0430000E03F2DE9FF4F89
:1041500095B09A46884606460025EEE1252877D197
:1041600000242746F94A0121039400E0044316F88D
:10417000013F203B01FA03F01042F7D130782A28A2
:1041800011D06FF02F033078A0F13002092A16D831
:10419000039A44F0020402EB820203EB4202104451
:1041A000761C0390EFE758F8042B0392002A03DAF9
:1041B000504244F40054039044F00204761C3078DA
:1041C0002E2816D116F8010F44F004042A280DD029
:1041D0006FF02F023078A0F13003092B09D807EBDC
:1041E000870302EB4303C718761CF3E758F8047BF8
:1041F000761C30786C280FD006DC4C2817D0682845
:104200000DD06A2814D104E0742810D07A280FD178
:104210000DE044F400140AE044F4801401E044F496
:1042200040147278824202D104F58014761C761C08
:10423000307866280BD013DC582877D009DC0028AA
:1042400075D04528F6D04628F4D047281AD193E1F6
:1042500018E0632835D0642879D0652812D18BE125
:10426000702873D008DC6728F1D069286FD06E28D9
:104270000DD06F2806D1ACE073282CD0752874D0EF
:10428000782853D05246179990476D1C54E1C4F3D7
:104290000250022809D003280DD0D8F800100428B5
:1042A0000DD00D6008F1040846E1D8F80010EA17B7
:1042B000C1E90052F6E7D8F800100D80F2E70D7062
:1042C000F0E718F8041B8DF8001000208DF80100AD
:1042D000EB46012003E058F804BB4FF0FF306107C4
:1042E0004FF0000102D40DE009F101018946B94205
:1042F0000FDA8145F8DB1BF809100029F4D108E03A
:1043000009F1010189468142FADB1BF809100029F5
:10431000F6D103985346A0EB090721463846179A71
:1043200000F080FA284400EB090507E044E008E1CA
:104330000DE01BF8010B524617999047B9F101099E
:10434000F7D2534621463846179AF2E039E00A215F
:10435000C4F302524FF0000B0091022A06D058F825
:10436000040BC117032A09D00AE023E008F1070073
:1043700020F00702F2E80201904605E000B2C11702
:10438000042A01D140B2C117002906DA0A460021E9
:10439000404261EB02012D2202E0220504D52B22CE
:1043A0008DF80420012203E0E20701D02022F7E784
:1043B000914657E00A2100E010214FF0000B0091D8
:1043C0000BE010214FF0000B44F00404082700918B
:1043D00003E008204FF0000B0090C4F30252022AC1
:1043E00005D058F8040B0021032A08D008E008F192
:1043F000070020F00702F2E80201904603E080B2D5
:10440000042A00D1C0B24FF0000922072AD5327821
:10441000702A07D0DDF800C08CF0100C5CEA0B0CA1
:1044200005D00EE040228DF80420012208E050EA79
:10443000010306D030238DF804308DF805200222C8
:104440009146009B83F0080353EA0B030AD150EA1C
:10445000010201D1620705D530228DF804204FF00A
:1044600001097F1E3278582A04D039A20C920CAA76
:1044700002920BE03BA2F9E75B46009AFBF7A2FE33
:104480000C9B9B5C029A521E0292137050EA01022E
:10449000F2D1029804A9081A00F1200B600702D596
:1044A00024F4803400E001275F4502DDA7EB0B0018
:1044B00000E0002000EB0B01009003984944401AF3
:1044C0000390E00306D453462146179A039800F060
:1044D000A9F90544002706E001A85246C05D1799D6
:1044E00090476D1C7F1C4F45F6DBE0030CD553460F
:1044F0002146179A039800F095F9054404E030200E
:104500005246179990476D1C0099481E009000294B
:10451000F5DC08E00298029952460078491C0291A5
:10452000179990476D1CBBF10001ABF1010BF1DC59
:104530005BE100F065F90544761C307800287FF4D3
:104540000DAE19B02846BDE8F08F00000928010023
:1045500030313233343536373839616263646566F9
:1045600000000000303132333435363738394142BB
:104570004344454600000000600700D4062708F1C8
:10458000070020F00700F0E80223804603F0004C0B
:104590005FEA0C0001D097A009E0200501D596A0A4
:1045A00005E0E00701D095A001E0AFF24C001390C8
:1045B000307823F0004365280CD006DC452809D06C
:1045C00046281DD047287FD13BE0662818D06728B1
:1045D0007AD136E00021112F01DB112000E0781C98
:1045E000CDE9000104A90CA8FFF7EEFCDDE90D01FF
:1045F0000C9A4FF0000B07F10109109200914EE068
:104600004FF000400097CDE9011004A90CA8FFF776
:10461000DBFCDDE90D020C9B0F994FF0000B91467E
:104620001093009211B9791C00EB0109B7EB090056
:1046300003D4C0F1FF3B07F10109A9EB070001908A
:1046400042E0012F00DA01270021112F01DD1120A6
:1046500000E03846CDE9000104A90CA8FFF7B4FC3E
:10466000DDE90D010C9A00914FF0000BB946109254
:1046700021070FD4009A4A4503DA914601E0A9F1D7
:104680000109B9F1010F05DD109AA9F10101515C91
:104690003029F4D0B84202DA10F1040F03DA012114
:1046A000CDE9011010E0002803DC8344A9EB0001F0
:1046B00002E0411C494500DD8946A0EB0B00401C8F
:1046C00001904FF000400290200705D40198484522
:1046D00002DB4FF0FF30019000208DF84B00029874
:1046E0000DF14B07B0F1004F25D002200C902B208C
:1046F0000D90029800280CDA404202902D200D9077
:1047000007E00A210298FBF775FF3031029007F8A5
:10471000011D0C99481E0C900029F2DC029800281B
:10472000EFD1791E0D980870307800F0200040F02D
:10473000450007F8020D11A8C01BC01D0290139878
:10474000007800B1012000EB0901019801EBE07154
:10475000029801440398401A401E0390E00306D4D7
:1047600053462146179A039800F05CF805441398C5
:10477000007818B15246179990476D1CE00323D575
:1047800053462146179A039800F04CF805441BE065
:10479000BBF1000F07DB0098584504DD109817990E
:1047A00010F80B0001E0179930205246904701980D
:1047B0000BF1010B401E05F10105019004D12E20E3
:1047C0005246179990476D1CB9F10001A9F10109F2
:1047D000DEDC05E017F8010B5246179990476D1C77
:1047E0000299481E02900029F4DC53462146179A8C
:1047F00003989EE62D0000002B0000002000000022
:104800002DE9F041044600251E461746880404D4CD
:1048100005E039462020B0476D1C641EF9D52846B6
:10482000BDE8F0812DE9F041044600251E46904682
:10483000C80301D5302700E02027880404D505E00F
:1048400041463846B0476D1C641EF9D52846BDE880
:10485000F081000013B54FF0FF3301226946024892
:10486000FDF771FF00981CBD2011002086B0FDF7F8
:1048700025F8FFF7FFF8FFF72DF8FFF715F8FFF71A
:1048800067F8FFF7B9F8FFF7D3F8FFF781F8FEF7FD
:1048900059FF4DA0FFF746FB6422062103A88DE8CF
:1048A000070001233B22D0215148FCF71DFD0100E8
:1048B0006BD050A0FFF736FB55A0FFF733FB5D4DE3
:1048C0005B4E4FF400612878012306EBC020CDE950
:1048D00000013B22D0214648FCF708FE014656A0C5
:1048E000FFF720FB4248FCF705FC014658A0FFF704
:1048F00019FB5B4F5B4C4FF000084FF001094FF480
:104900007A7A387800284AD084F800902878C0F164
:10491000010155A0FFF706FB2878C0F1010006EB66
:10492000C020B0F90430B0F90220B0F9001056A050
:10493000FFF7F8FA2878C0F1010006EBC0200188E3
:1049400011FB01F2418811FB0121808810FB00104E
:1049500000EE100AB0EE081AF8EEC00A80EE810AE6
:10496000FFF700FBDFED520A20EE200A10EE100ADE
:10497000FBF714FE41EC100B4EA053EC102BFFF78D
:10498000D1FA404687F8008018E0BDF91030BDF933
:104990000E20BDF90C104BA0FFF7C4FA8CE761683C
:1049A000491C0A20B1FBF0F200FB1210616030B923
:1049B00084F800904DA0FFF7B5FA404620705046AD
:1049C000FCF7F6F89DE7000054657374696E672084
:1049D0004D505536303530207769746820626C6FE1
:1049E000636B696E6720726561642E2E2E0D0A005E
:1049F00024100020426C6F636B696E6720726561E2
:104A000064206661696C65643A2025640D0A0000C3
:104A10005374617274696E67204D5055363035306D
:104A200020444D4120526561642E2E2E0D0A000057
:104A30002400002000000020444D41205374617286
:104A400074205374617475733A2025640D0A000054
:104A50004932432053746174653A2025640D0A007D
:104A600001000020040000205B4D61696E5D205054
:104A7000726F63657373696E6720627566666572CF
:104A80002025640D0A0000005B4D61696E5D2052B7
:104A900061772044617461202D20583D2536642CB7
:104AA00020593D2536642C205A3D2536640D0A00D8
:104AB00000008038524D533D252E366620670D0A82
:104AC00000000000426C6F636B696E672072656165
:104AD00064202D20583D2536642C20593D25366410
:104AE0002C205A3D2536640D0A0000005B4D61699B
:104AF0006E20256C755D2057616974696E6720664C
:104B00006F7220646174612E2E2E0D0A0000000069
:104B1000000610160006101600000000000000003D
:104B20000102030406070809000000000102030453
:104B3000504B000800000020240000009E3F0008A9
:104B4000744B000824000020D4150000AE3F00087C
:104B50000000000000000000000000000100000054
:104B600010000000000000000024F400000000001D
:044B70000000000041
:040000050800018965
:00000001FF
